:020000040800F2
:1000000000000220D91A0108BD430008C9430008B6
:10001000D1430008D9430008E14300080000000074
:10002000000000000000000000000000E94300089C
:10003000F7430008000000000544000813440008CE
:10004000291B0108291B0108291B0108291B01087C
:10005000291B0108291B0108291B0108291B01086C
:10006000291B0108291B0108291B0108214400083C
:1000700035440008494400085D4400087144000804
:10008000291B0108291B010885440008A144000818
:10009000B5440008C9440008DD440008F1440008E4
:1000A000291B010801450008291B0108291B01081B
:1000B000291B0108291B0108291B010815450008F7
:1000C000291B0108291B0108291B0108291B0108FC
:1000D000291B010829450008291B01083D45000886
:1000E000291B0108291B0108291B0108291B0108DC
:1000F000291B0108291B0108291B0108291B0108CC
:10010000291B01085145000865450008291B010805
:10011000291B0108291B0108291B0108291B0108AB
:1001200079450008291B01088D450008A1450008F4
:10013000291B0108291B0108291B0108291B01088B
:10014000291B0108291B0108291B0108291B01087B
:10015000291B0108B5450008291B0108C9450008ED
:10016000DD450008291B0108291B0108291B01087E
:10017000291B0108291B0108291B01080000000098
:08018000291B0108291B0108DD
:1001900010B5054C237833B9044B13B10448AFF3C1
:1001A00000800123237010BDEC010020000000003E
:1001B000044C010808B5034B1BB103490348AFF3D6
:1001C000008008BD00000000F0010020044C010880
:1001D00001F0FF01102A2BDB10F0070F08D010F8F8
:1001E000013B013A8B422DD010F0070F42B3F6D1FC
:1001F000F0B441EA012141EA014122F007047FF015
:1002000000070023F0E80256083C85EA010586EA6B
:10021000010685FA47F5A3FA87F586FA47F6A5FAA7
:1002200087F68EB9EED1F0BC01F0FF0102F00702B3
:1002300032B110F8013B013A83EA010313B1F8D15E
:100240000020704701387047002D06BF354603383F
:10025000073815F0010F07D1013015F4807F02BF78
:10026000013015F4C03F0130F0BC0138704700BFC9
:1002700081F0004102E000BF83F0004330B54FEA57
:1002800041044FEA430594EA050F08BF90EA020FC4
:100290001FBF54EA000C55EA020C7FEA645C7FEA57
:1002A000655C00F0E2804FEA5454D4EB5555B8BF7A
:1002B0006D420CDD2C4480EA020281EA030382EAEB
:1002C000000083EA010180EA020281EA0303362D7D
:1002D00088BF30BD11F0004F4FEA01314FF4801C50
:1002E0004CEA113102D0404261EB410113F0004F62
:1002F0004FEA03334CEA133302D0524263EB430319
:1003000094EA050F00F0A780A4F10104D5F1200EB6
:100310000DDB02FA0EFC22FA05F2801841F1000111
:1003200003FA0EF2801843FA05F359410EE0A5F1E5
:1003300020050EF1200E012A03FA0EFC28BF4CF016
:10034000020C43FA05F3C01851EBE37101F00045CC
:1003500007D54FF0000EDCF1000C7EEB00006EEBD9
:100360000101B1F5801F1BD3B1F5001F0CD3490863
:100370005FEA30004FEA3C0C04F101044FEA4452BA
:1003800012F5800F80F09A80BCF1004F08BF5FEA41
:10039000500C50F1000041EB045141EA050130BD21
:1003A0005FEA4C0C404141EB0101013C28BFB1F533
:1003B000801FE9D291F0000F04BF01460020B1FA7E
:1003C00081F308BF2033A3F10B03B3F120020CDA51
:1003D0000C3208DD02F1140CC2F10C0201FA0CF02F
:1003E00021FA02F10CE002F11402D8BFC2F1200C94
:1003F00001FA02F120FA0CFCDCBF41EA0C0190404A
:10040000E41AA2BF01EB0451294330BD6FEA040492
:100410001F3C1CDA0C340EDC04F11404C4F120027D
:1004200020FA04F001FA02F340EA030021FA04F38F
:1004300045EA030130BDC4F10C04C4F1200220FAE6
:1004400002F001FA04F340EA0300294630BD21FA24
:1004500004F0294630BD94F0000F83F4801306BFEA
:1004600081F480110134013D4EE77FEA645C18BFDE
:100470007FEA655C29D094EA050F08BF90EA020F75
:1004800005D054EA000C04BF1946104630BD91EA6D
:10049000030F1EBF0021002030BD5FEA545C05D170
:1004A0004000494128BF41F0004130BD14F58004AF
:1004B0003CBF01F5801130BD01F0004545F0FE4123
:1004C00041F470014FF0000030BD7FEA645C1ABF58
:1004D000194610467FEA655C1CBF0B46024650EA8F
:1004E000013406BF52EA033591EA030F41F40021BB
:1004F00030BD00BF90F0000F04BF0021704730B541
:100500004FF4806404F132044FF000054FF0000115
:1005100050E700BF90F0000F04BF0021704730B5D6
:100520004FF4806404F1320410F0004548BF4042AB
:100530004FF000013EE700BF42004FEAE2014FEA00
:1005400031014FEA02701FBF12F07F4393F07F4FDB
:1005500081F06051704732F07F4208BF704793F0DE
:100560007F4F04BF41F40021704730B54FF46074F1
:1005700001F0004521F000411CE700BF50EA0102F4
:1005800008BF704730B54FF000050AE050EA01029D
:1005900008BF704730B511F0004502D5404261EB0D
:1005A00041014FF4806404F132045FEA915C3FF44E
:1005B000D8AE4FF003025FEADC0C18BF03325FEAEB
:1005C000DC0C18BF033202EBDC02C2F1200300FA9C
:1005D00003FC20FA02F001FA03FE40EA0E0021FAC1
:1005E00002F11444BDE600BF70B54FF0FF0C4CF4AF
:1005F000E06C1CEA11541DBF1CEA135594EA0C0F61
:1006000095EA0C0F00F0DEF82C4481EA030621EA9B
:100610004C5123EA4C5350EA013518BF52EA0335D6
:1006200041F4801143F4801338D0A0FB02CE4FF088
:100630000005E1FB02E506F00042E0FB03E54FF0B8
:100640000006E1FB03569CF0000F18BF4EF0010EB0
:10065000A4F1FF04B6F5007F64F5407404D25FEAAC
:100660004E0E6D4146EB060642EAC62141EA55515F
:100670004FEAC52040EA5E504FEACE2EB4F1FD0CA1
:1006800088BFBCF5E06F1ED8BEF1004F08BF5FEA1F
:10069000500E50F1000041EB045170BD06F00046D1
:1006A00046EA010140EA020081EA0301B4EB5C047E
:1006B000C2BFD4EB0C0541EA045170BD41F4801176
:1006C0004FF0000E013C00F3AB8014F1360FDEBF9B
:1006D000002001F0004170BDC4F10004203C35DA77
:1006E0000C341BDC04F11404C4F1200500FA05F3FA
:1006F00020FA04F001FA05F240EA020001F000429B
:1007000021F0004110EBD37021FA04F642EB060110
:100710005EEA430E08BF20EAD37070BDC4F10C043A
:10072000C4F1200500FA04F320FA05F001FA04F2FE
:1007300040EA020001F0004110EBD37041F10001EA
:100740005EEA430E08BF20EAD37070BDC4F12005F5
:1007500000FA05F24EEA020E20FA04F301FA05F25D
:1007600043EA020321FA04F001F0004121FA04F205
:1007700020EA020000EBD3705EEA430E08BF20EAD5
:10078000D37070BD94F0000F0FD101F0004640000F
:1007900041EB010111F4801F08BF013CF7D041EA91
:1007A000060195F0000F18BF704703F00046520095
:1007B00043EB030313F4801F08BF013DF7D043EA66
:1007C0000603704794EA0C0F0CEA135518BF95EA1C
:1007D0000C0F0CD050EA410618BF52EA4306D1D1A3
:1007E00081EA030101F000414FF0000070BD50EAC2
:1007F000410606BF1046194652EA430619D094EA4C
:100800000C0F02D150EA013613D195EA0C0F05D135
:1008100052EA03361CBF104619460AD181EA030189
:1008200001F0004141F0FE4141F470014FF0000041
:1008300070BD41F0FE4141F4780170BD70B54FF0DC
:10084000FF0C4CF4E06C1CEA11541DBF1CEA13555C
:1008500094EA0C0F95EA0C0F00F0A7F8A4EB05043E
:1008600081EA030E52EA03354FEA013100F0888035
:100870004FEA03334FF0805545EA131343EA1263FE
:100880004FEA022245EA111545EA10654FEA0026B3
:100890000EF000419D4208BF964244F1FD0404F56C
:1008A000407402D25B084FEA3202B61A65EB0305C8
:1008B0005B084FEA32024FF480104FF4002CB6EB85
:1008C000020E75EB030E22BFB61A754640EA0C0005
:1008D0005B084FEA3202B6EB020E75EB030E22BF45
:1008E000B61A754640EA5C005B084FEA3202B6EB86
:1008F000020E75EB030E22BFB61A754640EA9C0045
:100900005B084FEA3202B6EB020E75EB030E22BF14
:10091000B61A754640EADC0055EA060E18D04FEAD2
:10092000051545EA16754FEA06164FEAC30343EA72
:1009300052734FEAC2025FEA1C1CC0D111F4801F3F
:100940000BD141EA00014FF000004FF0004CB6E738
:1009500011F4801F04BF01430020B4F1FD0C88BFD7
:10096000BCF5E06F3FF6AFAEB5EB030C04BFB6EBE2
:10097000020C5FEA500C50F1000041EB045170BDD5
:100980000EF0004E4EEA113114EB5C04C2BFD4EB02
:100990000C0541EA045170BD41F480114FF0000E86
:1009A000013C90E645EA060E8DE60CEA135594EA02
:1009B0000C0F08BF95EA0C0F3FF43BAF94EA0C0F05
:1009C0000AD150EA01347FF434AF95EA0C0F7FF47A
:1009D00025AF104619462CE795EA0C0F06D152EACE
:1009E00003353FF4FDAE1046194622E750EA4106B2
:1009F00018BF52EA43067FF4C5AE50EA41047FF4C3
:100A00000DAF52EA43057FF4EBAE12E74FF0FF3C27
:100A100006E000BF4FF0010C02E000BF4FF0010CF8
:100A20004DF804CD4FEA410C7FEA6C5C4FEA430C71
:100A300018BF7FEA6C5C1BD001B050EA410C0CBFC0
:100A400052EA430C91EA030F02BF90EA020F002022
:100A5000704710F1000F91EA030F58BF994208BF89
:100A600090422CBFD8176FEAE37040F00100704746
:100A70004FEA410C7FEA6C5C02D150EA013C07D19D
:100A80004FEA430C7FEA6C5CD6D152EA033CD3D0E8
:100A90005DF8040B704700BF8446104662468C46E2
:100AA0001946634600E000BF01B5FFF7B7FF002815
:100AB00048BF10F1000F01BD4DF808EDFFF7F4FF3E
:100AC0000CBF012000205DF808FB00BF4DF808EDC9
:100AD000FFF7EAFF34BF012000205DF808FB00BFEC
:100AE0004DF808EDFFF7E0FF94BF012000205DF80E
:100AF00008FB00BF4DF808EDFFF7CEFF94BF0120C3
:100B000000205DF808FB00BF4DF808EDFFF7C4FFBB
:100B100034BF012000205DF808FB00BF4FEA41020E
:100B200012F5001215D211D56FF47873B3EB62523F
:100B300012D94FEAC12343F0004343EA505311F066
:100B4000004F23FA02F018BF404270474FF00000F8
:100B5000704750EA013005D111F0004008BF6FF036
:100B6000004070474FF00000704700BF4A0011D2AC
:100B700012F5001211D20DD56FF47873B3EB6252F7
:100B80000ED44FEAC12343F0004343EA505323FA03
:100B900002F070474FF00000704750EA013002D178
:100BA0004FF0FF3070474FF00000704753B94AB91B
:100BB000002908BF00281CBF4FF0FF314FF0FF3065
:100BC00000F0A0B9ADF1080C6DE904CE00F03CF8DE
:100BD000DDF804E0DDE9022304B0704738B50022F7
:100BE000002304460D46FFF771FF28B92046294629
:100BF000BDE8384000F00AB8204605F1004100F099
:100C000005F8404261EB410138BD00BFD0B50C4B47
:100C1000002206460F46FFF7E7FCFFF7A7FF044652
:100C2000FFF768FC074B0022FFF7DEFC02460B468D
:100C300030463946FFF720FBFFF798FF2146D0BD2D
:100C40000000F03D0000F0412DE9F047089D0C4602
:100C5000002B4ED194468C458646B2FA82F262D978
:100C60004AB1C2F12003914020FA03F30CFA02FCCE
:100C7000194300FA02FE4FEA1C471FFA8CF6B1FB3B
:100C8000F7F44FEA1E4307FB141143EA014304FB48
:100C900006F199420AD91CEB030304F1FF3080F0FE
:100CA0001281994240F20F81023C6344591A1FFAA3
:100CB0008EF3B1FBF7F007FB101143EA014300FB91
:100CC00006F69E420AD91CEB030300F1FF3180F0C7
:100CD000FC809E4240F2F980634402389B1B40EA4C
:100CE000044000211DB1D3400022C5E90032BDE817
:100CF000F0878B4205D90DB1C5E9000100210846F6
:100D0000F5E7B3FA83F1002946D1A34202D390421A
:100D1000C0F0F080861A64EB03030120002DE6D0BA
:100D2000C5E90063E3E7002A40F09080A1EB0C04E2
:100D30004FEA1C481FFA8CF70121B4FBF8F64FEA82
:100D40001E4308FB164443EA044307FB06F098429F
:100D500008D91CEB030306F1FF3402D2984200F2DB
:100D6000CD8026461C1A1FFA8EF3B4FBF8F008FB60
:100D7000104443EA044300FB07F79F4208D91CEBE9
:100D8000030300F1FF3402D29F4200F2B0802046FC
:100D9000DB1B40EA0640A5E7C1F120068B4022FAA2
:100DA00006F71F4320FA06FC04FA01F343EA0C039A
:100DB000F44000FA01F8380C4FEA1349B4FBF0FE96
:100DC0001FFA87FC00FB1E4449EA04440EFB0CF9A1
:100DD000A14502FA01F20AD93C190EF1FF3A80F05E
:100DE0008480A14540F28180AEF1020E3C44A4EB28
:100DF00009041FFA83F9B4FBF0F300FB134449EA3A
:100E0000044403FB0CFCA44507D93C1903F1FF3053
:100E100067D2A44565D9023B3C4443EA0E40A0FB9F
:100E20000293A4EB0C049C42CE469C4651D34ED078
:100E300055B1B8EB0E0364EB0C0404FA06F6CB4094
:100E40001E43CC40C5E90064002150E7C2F12003F5
:100E500020FA03F10CFA02FC24FA03F394400C4349
:100E60004FEA1C4800FA02FE1FFA8CF7B3FBF8F0B9
:100E700008FB1031230C43EA014300FB07F19942C0
:100E800008D91CEB030300F1FF362CD299422AD972
:100E9000023863445B1AA4B2B3FBF8F108FB1133C8
:100EA00044EA034401FB07F3A34208D91CEB040402
:100EB00001F1FF3613D2A34211D902396444E41A76
:100EC00041EA004139E70446F0E6084606E7C8452E
:100ED000AED2B9EB020E63EB070C0138A8E731463E
:100EE000EDE7034699E73046D4E7D6467FE763440B
:100EF00002384DE70646234608460FE7023E6344A4
:100F000030E700BF704700BF80B584B000AF034634
:100F10003A60FB710B46BB7106F02CF803464E4A53
:100F200013604D4AFB7913714B4ABB7953713B688F
:100F3000DAB2494B9A71484B1B78FB60474B1B78E0
:100F40001A46FB681344FB60454B1B781A46FB6846
:100F50001344FB60434B1B781A46FB681344FB6049
:100F6000414B1B781A46FB681344FB603F4B1B78D0
:100F70001A46FB681344FB603D4B1B781A46FB681E
:100F80001344FB603B4B1B781A46FB681344FB6021
:100F9000394B1B781A46FB681344FB60374B1B78B0
:100FA0001A46FB681344FB60354B1B781A46FB68F6
:100FB0001344FB60334B1B781A46FB681344FB60F9
:100FC000314B1B781A46FB681344FB602F4B1B7890
:100FD0001A46FB681344FB602D4B1B781A46FB68CE
:100FE0001344FB60FB68DAB21B4BDA71294B5B7868
:100FF000002B04D010221849274800F0D6F8254BC2
:101000009B78002B10D0254B1B6803F00203002BAC
:101010000AD0234B1B6843F00103214A13601022BE
:101020000D49204800F0C1F81F4B1B6843F0010335
:101030001D4A1360102208491C4800F0B6F80D49FB
:101040004FF000024FF00003C1E9002300231846CF
:101050001037BD4680BD00BF3C1200203D1200206D
:101060003E1200203F1200204012002041120020BA
:101070004212002044120020451200204612002097
:101080004712002048120020491200204A12002076
:101090004B1200204C120020701200209862002099
:1010A000946200209C620020802200208422002084
:1010B00080B483B000AF78607B68DA687B689B6837
:1010C0009A420CBF01230023DBB218460C37BD4601
:1010D0005DF8047B704780B483B000AF78607B68B4
:1010E000DA687B689B68D21A7B685B681A407B6809
:1010F0005B689A420CBF01230023DBB218460C3711
:10110000BD465DF8047B704780B584B000AFF860E1
:10111000B9607A607B685A1E7B681340002B05D04B
:101120000B4B0C4A09210C4810F000FDFB68BA6813
:101130001A607B685A1EFB685A60FB6800229A603E
:10114000FB680022DA6000BF1037BD4680BD00BFDB
:10115000204C01087C4D0108484C010880B582B044
:1011600000AF78600B46FB707868FFF7B4FF03466A
:10117000002B07D07B689B685A1C7B685B681A4011
:101180007B689A607B681A687B68DB681344FA782E
:101190001A707B68DB685A1C7B685B681A407B6846
:1011A000DA6000BF0837BD4680BD80B586B000AFAD
:1011B000F860B9607A6000237B610AE0BA687B69F5
:1011C00013441B781946F868FFF7C8FF7B690133A1
:1011D0007B617A697B689A42F0D300BF00BF183701
:1011E000BD4680BD80B582B000AF78603960786858
:1011F000FFF75EFF0346002B01D0002310E07B6861
:101200001A687B689B6813441A783B681A707B687D
:101210009B685A1C7B685B681A407B689A60012354
:1012200018460837BD4680BD80B586B000AFF8606F
:10123000B9607A60F868FFF73BFF0346002B01D0E6
:10124000002316E0BB687B6100233B6105E03B693E
:1012500001333B617B6901337B613A697B689A4268
:1012600006D27969F868FFF7BDFF0346002BEED17F
:101270003B6918461837BD4680BD80B400AF0123D6
:101280001846BD465DF8047B704780B582B000AF5C
:101290007860396011F0BCFC034616221A604FF0EA
:1012A000FF3318460837BD4680BD80B582B000AF19
:1012B00078604FF0FF317868FFF7E7FF00BFFDE788
:1012C00080B586B000AFF860B9607A6000237B61BA
:1012D0000AE0AFF300800146BB685A1CBA60CAB28C
:1012E0001A707B6901337B617A697B689A42F0DB13
:1012F0007B6818461837BD4680BD80B483B000AF08
:1013000078604FF0FF3318460C37BD465DF8047B1C
:10131000704780B483B000AF786039603B684FF4A9
:1013200000525A60002318460C37BD465DF8047B16
:10133000704780B483B000AF7860012318460C3743
:10134000BD465DF8047B704780B485B000AFF8609F
:10135000B9607A60002318461437BD465DF8047BF7
:101360007047000080B586B000AF7860144A154B16
:10137000D31A7B617B693B61134B1B68002B02D145
:10138000114B124A1A60104B1A687B6813443A6971
:101390009A4207D211F03CFC03460C221A604FF02F
:1013A000FF3309E0084B1B68FB60074B1A687B683A
:1013B0001344054A1360FB6818461837BD4680BDC4
:1013C000000002200004000008020020B0AE00204F
:1013D00080B584B000AF78600B46FB707B68BB6063
:1013E000BB68FB600EE0FB681A78BB681A70BB68CC
:1013F0001B78FA789A4202D0BB680133BB60FB6865
:101400000133FB60FB681B78002BECD1BB6800222A
:101410001A70786810F0ABFB034618461037BD46CB
:1014200080BD80B582B000AF78602E21786811F061
:1014300076FB034600221A70786810F098FB03468A
:1014400018460837BD4680BD80B584B000AFF8604F
:10145000B9607A607B689AB21E23B96803480CF0C1
:10146000C6F97B6818461037BD4680BDECA9002040
:1014700080B584B000AF05F017FD00F08FFA00F0E2
:10148000BBFD01F05FFA00F0F3FE00F051FF01F048
:10149000F7FD02F03DFA02F08DFA01F0B5F901F026
:1014A00007FC01F033FC01F0A5FF02F011FD02F092
:1014B00039FD03F0FDFA02F05FFD3B1D184601F017
:1014C000B5FD3B1D184601F06FFEF860FB68002B70
:1014D0000ED1BB4B01225A7001224FF40051B94882
:1014E00004F082FF002200210320FFF70DFD11E030
:1014F000B34B00225A7000224FF40051B14804F05F
:1015000073FFFB68DAB2B04B1A720022002101208F
:10151000FFF7FAFC00224021AC4804F065FF0022EE
:101520008021AA4804F060FF00224FF40071A54812
:1015300004F05AFF00224FF48061A24804F054FFE7
:101540009F4B00221A709E4B0022DA709C4B0022A7
:101550009A7000224FF400619A4804F045FF01227E
:101560004FF48051974804F03FFF00224FF4804130
:10157000944804F039FF00224FF40041914804F0F0
:1015800033FF1422924993480CF008FA01220021FB
:101590000320FFF7B9FC02F05FFCF860FB68002B4A
:1015A00005D1022200210320FFF7AEFC08E0FB6812
:1015B000DAB2854B1A72022200210120FFF7A4FC47
:1015C00001F098FAF860FB68002B5FD17C4B012298
:1015D0009A7001224FF400417A4804F005FF64201C
:1015E00005F0D4FC00224FF40041764804F0FCFEE4
:1015F000642005F0CBFC01224FF40041714804F057
:10160000F3FE642005F0C2FC00224FF400416D4857
:1016100004F0EAFE642005F0B9FC01224FF4004119
:10162000684804F0E1FE642005F0B0FC00224FF4AD
:101630000041644804F0D8FE642005F0A7FC0122B4
:101640004FF400415F4804F0CFFE642005F09EFC9B
:1016500000224FF400415B4804F0C6FE642005F010
:1016600095FC01224FF40041564804F0BDFE642071
:1016700005F08CFC00224FF40041524804F0B4FE07
:10168000042200210320FFF73FFC11E04C4B002215
:101690009A7000224FF400414A4804F0A5FEFB680E
:1016A000DAB2494B1A72042200210120FFF72CFC08
:1016B00001F03EF8F860FB68002B0ED1404B012290
:1016C000DA7001224FF480413E4804F08DFE05227D
:1016D00000210320FFF718FC11E0394B0022DA70DB
:1016E00000224FF48041374804F07EFEFB68DAB2F6
:1016F000354B1A72052200210120FFF705FC00F08E
:1017000073FCF860FB68002B05D106220021032042
:10171000FFF7FAFB08E0FB68DAB22B4B1A720622DD
:1017200000210120FFF7F0FB00F09AFDF860FB6854
:10173000002B05D1072200210320FFF7E5FB08E07D
:10174000FB68DAB2204B1A72072200210120FFF752
:10175000DBFB02F07FF8F860FB68002B05D1082264
:1017600000210320FFF7D0FB08E0FB68DAB2164B3C
:101770001A72082200210120FFF7C6FB01F076FA59
:10178000F860FB68002B05D1092200210320FFF738
:10179000BBFB08E0FB68DAB20B4B1A72092200218E
:1017A0000120FFF7B1FB02F039FDF860FB68002B68
:1017B00012D10A2200210320FFF7A6FB15E000BF8B
:1017C0004C120020001002403C1200200000024099
:1017D00054120020ECA90020FB68DAB25F4B1A72A9
:1017E0000A2200210120FFF78FFB0B22002103209A
:1017F000FFF78AFB5A480AF0A1FE5A4B1B6803F018
:101800000103002B14D0574B1B6823F00103554AEA
:101810001360554B1A68554B92B21A80524B5A6856
:10182000534B92B21A80002203210320FFF76CFB76
:101830004C4B1B6803F00203002B1ED0494B1B6866
:1018400023F00203474A13604A4B1A68474B92B28F
:101850001A80484B5A68464B92B21A80454B9A6898
:10186000454B92B21A80434BDA68444B92B21A80CD
:10187000012203210320FFF747FB414B1B6803F4C0
:101880000073002B2BD03F4B1B683F4AA2FB032366
:10189000DA08364B92B21A803A4B5B683A4AA2FB9E
:1018A0000323DA08324B92B21A80364B9B68364AD1
:1018B000A2FB0323DA08304B92B21A80314BDB686B
:1018C000314AA2FB0323DA082C4B92B21A80002281
:1018D00004210320FFF718FB294B00221A602B4B31
:1018E0001B68012B0DD1294B00221A60284B1F4980
:1018F000D3E90023C1E90023002205210320FFF7DB
:1019000003FB244B1B68012B04D1224B00221A60DD
:1019100000F096F901F0F6FC02F0AEFA01F052F98F
:101920001D4B1B6803F00103002B07D01A4B1B68EB
:1019300023F00103184A136000F0A0F8164B1B684F
:1019400003F00203002B3FF458AF134B1B6823F046
:101950000203114A136000F037F94EE73C120020F1
:10196000D8A70020D0A20020D4A20020441200203A
:1019700046120020DCA20020481200204A1200205B
:10198000ECA20020F0A20020CDCCCCCC20A30020E3
:1019900024A300202CA300205012002080B594B076
:1019A00000AF07F1200330220021184611F0AFF8F4
:1019B00007F10C0300221A605A609A60DA601A611B
:1019C0000023BB602B4B1B6C2A4A43F080531364EB
:1019D000284B1B6C03F08053BB60BB6800237B600B
:1019E000254B1B68244A43F480431360224B1B6839
:1019F00003F480437B607B680D233B624FF48033AC
:101A00007B620123BB6201237B630223BB634FF430
:101A10008003FB6304233B64A8237B640223BB6431
:101A20000723FB6407F12003184603F087FD0346F4
:101A3000002B01D000F06CFA0F23FB6002233B6106
:101A400000237B614FF4A053BB614FF48053FB61D3
:101A500007F10C030521184603F0E8FF0346002BAD
:101A600001D000F055FA04F0C7F800BF5037BD466A
:101A700080BD00BF003802400070004080B582B0D9
:101A800002AF4FF48071484804F096FC0346002BE7
:101A90000CBF01230023DBB21A46444B1A724FF4E9
:101AA0000071414804F088FC0346002B0CBF012361
:101AB0000023DBB21A463D4B5A724FF480613A481C
:101AC00004F07AFC0346002B0CBF01230023DBB299
:101AD0001A46364B9A724FF40061334804F06CFC9E
:101AE0000346002B0CBF01230023DBB21A462F4B09
:101AF000DA724FF480512C4804F05EFC0346002B50
:101B00000CBF01230023DBB21A46284B1A734FF493
:101B10000051254804F050FC0346002B0CBF012364
:101B20000023DBB21A46214B5A734FF480411E4802
:101B300004F042FC0346002B0CBF01230023DBB260
:101B40001A461A4B9A734FF40041174804F034FCBC
:101B50000346002B0CBF01230023DBB21A46134BB4
:101B6000DA73002202210320FFF7CEF9104B1B6825
:101B700003F00203002B04D104220E490E4803F0A7
:101B800005F901F06FFE0D4B1B68002B09D10623F0
:101B900001930B4B009301233222A621094806F042
:101BA00079FB00BFBD4680BD000C02403C12002006
:101BB000D0A20020DCA2002040A4002020A300200E
:101BC00024A30020C4A5002080B500AF174B1B68DC
:101BD00003F00103002B04D102221549154803F03C
:101BE000D5F801F0DBFB144B1B78002B06D001224B
:101BF0004FF48051114804F0F7FB05E000224FF448
:101C000080510E4804F0F0FB0B4B1B78002B14BFE7
:101C100001230023DBB283F00103DBB203F00103F5
:101C2000DAB2054B1A7000BF80BD00BFD0A2002001
:101C3000D4A20020F8A300200000002000100240E1
:101C400080B500AF0622A349A34810F075FF0346F4
:101C5000002B40F05981A14B9F4A1A609F4B1B6893
:101C60002C21184610F05BFF03469C4A53609B4BA7
:101C70005B6800221A70994B5B680133974A536086
:101C8000964B5B68954A5360944B5B682C211846D1
:101C900010F045FF0346914A9360904B9B680022E9
:101CA0001A708E4B9B6801338C4A93608B4B9B68F8
:101CB0008A4A9360894B9B681B78412B40F02481B2
:101CC000864B9B682C21184610F029FF0346834A57
:101CD000D360824BDB6800221A70804BDB680133D3
:101CE0007E4AD3607D4BDB687C4AD3607B4BDB68EC
:101CF0002C21184610F013FF0346784A1361774BE6
:101D00001B6900221A70754B1B690133734A1361FA
:101D1000724B1B69714A1361704B1B692C21184669
:101D200010F0FDFE03466D4A53616C4B5B69002267
:101D30001A706A4B5B690133684A5361674B5B6990
:101D4000664A5361654B5B692C21184610F0E7FE2B
:101D50000346624A9361614B9B6900221A705F4B94
:101D60009B6901335D4A93615C4B9B695B4A93615C
:101D70005A4B9B692C21184610F0D1FE0346574A56
:101D8000D361564BDB6900221A70544BDB69013377
:101D9000524AD361514BDB69504AD3614F4BDB69E7
:101DA0002C21184610F0BBFE03464C4A13624B4BE5
:101DB0001B6A00221A70494B1B6A0133474A13629F
:101DC000464B1B6A454A1362444B1B6A2C2118463A
:101DD00010F0A5FE0346414A5362404B5B6A002265
:101DE0001A703E4B5B6A01333C4A53623B4B5B6A61
:101DF0003A4A5362394B5B6A2C21184610F08FFE29
:101E00000346364A9362354B9B6A00221A70334B65
:101E10009B6A0133314A9362304B9B6A2F4A93622B
:101E20002E4BDB682E211846FFF7D2FA03462C4AC8
:101E300013602A4B5B692E211846FFF7C9FA034647
:101E4000274A5360254BDB6918460FF08DFE51EC95
:101E5000100B4FF00002234BFEF7C6FB02460B4669
:101E600010461946FEF75AFE03461A461E4B1A60E4
:101E70001A4B1B6A1846FFF7D4FA03461A4A5360F6
:101E8000164B5B6A18460FF072FE03461A46174B54
:101E90001A60124B5B681846FFF7C3FA0346134AF1
:101EA00053600F4B1249D3E90023C1E900230022FC
:101EB00006210320FFF728F80B4B0D49D3E9002337
:101EC000C1E90023012206210320FFF71DF8074B7B
:101ED00010E000BF604C010830A30020B0A3002038
:101EE000DCA3002000005940E4A30020ECA3002064
:101EF000441200200549D3E90023C1E9002302224E
:101F000006210320FFF700F800BF80BD4412002027
:101F100080B400AF72B600BF00BFFDE780B582B0ED
:101F200000AF0346FB80FB88B3F5807F49D1274B88
:101F30001B6803F00103002B43D04FF48071244849
:101F400004F03AFA0346002B27D0204B1B6843F0DD
:101F500002031E4A13601F4B01221A720322002142
:101F60000320FEF7D1FF01224FF400411A4804F08C
:101F70003BFA1A4B1B68002B23D1144B1B6803F050
:101F80000403002B1DD1154B01221A601923144A9A
:101F90000021144806F0D0F813E00C4B1B6823F026
:101FA00002030A4A13600B4B00221A72032200211B
:101FB0000220FEF7A9FF00224FF40041064804F07A
:101FC00013FA00BF0837BD4680BD00BF98620020ED
:101FD000000402403C12002000100240F4A3002044
:101FE0005412002070A5002080B400AF00231846D2
:101FF000BD465DF8047B704780B58CB000AF07F13B
:102000001C0300221A605A609A60DA601A61002389
:10201000BB61574B1B6B564A43F004031363544B8D
:102020001B6B03F00403BB61BB6900237B61504B56
:102030001B6B4F4A43F0800313634D4B1B6B03F044
:1020400080037B617B6900233B61494B1B6B484AE2
:1020500043F001031363464B1B6B03F001033B6129
:102060003B690023FB60424B1B6B414A43F010036A
:1020700013633F4B1B6B03F01003FB60FB680023F3
:10208000BB603B4B1B6B3A4A43F002031363384B74
:102090001B6B03F00203BB60BB6800237B60344B07
:1020A0001B6B334A43F008031363314B1B6B03F084
:1020B00008037B607B680022C0212E4804F094F95D
:1020C00000224FF47E412C4804F08EF9C023FB61BE
:1020D00001233B6202237B620023BB6207F11C03E6
:1020E0001946244803F0CCFF4FF47E43FB610123E3
:1020F0003B6200237B620023BB6207F11C0319468D
:102100001D4803F0BDFF4FF48053FB6100233B6289
:1021100002237B6207F11C031946184803F0B0FF45
:102120004FF47F43FB6100233B6202237B6207F194
:102130001C031946124803F0A3FF4FF48073FB61A0
:102140004FF444133B6200237B6207F11C031946E2
:102150000A4803F095FF00220021172004F06DFECD
:10216000172004F086FE00BF3037BD4680BD00BF9B
:10217000003802400000024000100240000402400B
:10218000000C0240B0B582B000AF78607B681B687D
:102190002A4A934243D12A4B1B682A4A12889B1A27
:1021A0001846FEF7A7F94FF00002274BFEF71CFA7E
:1021B00002460B4614461D46244B1B881A46214BEB
:1021C0001B88D31A1846FEF7A5F902460B4620468F
:1021D0002946FEF733FB02460B46104619464FF0E0
:1021E00000021B4BFEF74AF802460B461046194602
:1021F0004FF00002174BFEF7F7F902460B46104668
:102200001946FEF7B3FC03469BB21A460C4B1A6004
:10221000114B1B6843F001030F4A13600AE07B680F
:102220001B680E4A934205D10B4B1B6843F0020317
:10223000094A136000BF0837BD46B0BD0020014009
:10224000D4A200202C7AFF1F000054402E7AFF1FDA
:1022500000003E4000002440D0A2002000210140A8
:1022600080B400AF00231846BD465DF8047B70477C
:1022700080B584B000AF3B4600221A605A609A6075
:10228000DA60284B284A1A60264B4FF480325A6095
:10229000244B00229A60234B01221A61214B002219
:1022A0001A76204B002283F820201E4B0022DA628F
:1022B0001C4B1E4A9A621B4B0022DA60194B022209
:1022C000DA61184B012283F83020164B00225A6144
:1022D000144802F007FC0346002B01D0FFF718FE5C
:1022E00010233B6001237B600123BB603B46194602
:1022F0000C4802F079FE0346002B01D0FFF708FEE0
:102300000F233B6002237B603B461946054802F0E1
:102310006BFE0346002B01D0FFF7FAFD00BF10371C
:10232000BD4680BDF8A30020002001400100000F41
:1023300080B584B000AF3B4600221A605A609A60B4
:10234000DA60364B364A1A60344B4FF480325A60AA
:10235000324B00229A60314B01221A612F4B00222E
:102360001A762E4B002283F820202C4B0022DA62B2
:102370002A4B2C4A9A62294B0022DA60274B04220E
:10238000DA61264B012283F83020244B00225A6167
:10239000224802F0A7FB0346002B01D0FFF7B8FD4F
:1023A0000A233B6001237B600123BB603B46194647
:1023B0001A4802F019FE0346002B01D0FFF7A8FDD2
:1023C0000B233B6002237B603B461946134802F017
:1023D0000BFE0346002B01D0FFF79AFD0C233B6058
:1023E00003237B603B4619460C4802F0FDFD034683
:1023F000002B01D0FFF78CFD0D233B6004237B6095
:102400003B461946054802F0EFFD0346002B01D07C
:10241000FFF77EFD00BF1037BD4680BD40A4002001
:10242000002101400100000F80B58CB000AF786042
:1024300007F11C0300221A605A609A60DA601A6180
:102440007B681B68664A934260D10023BB61654B81
:102450005B6C644A43F480735364624B5B6C03F4BB
:102460008073BB61BB6900237B615E4B1B6B5D4A64
:1024700043F0040313635B4B1B6B03F004037B61AA
:102480007B692023FB6103233B6200237B6207F10E
:102490001C031946544803F0F3FD544B544A1A6088
:1024A000524B00225A60514B00229A604F4B00223F
:1024B000DA604E4B4FF480621A614C4B4FF48052FD
:1024C0005A614A4B4FF480429A61484B4FF48072F4
:1024D000DA61464B00221A62444B00225A6243489A
:1024E00003F0B4FF0346002B01D0FFF711FD7B681A
:1024F0003E4A9A633D4A7B68936300220021122082
:1025000004F09BFC122004F0B4FC65E07B681B68BF
:10251000384A934260D100233B61324B5B6C314AB5
:1025200043F4007353642F4B5B6C03F400733B6103
:102530003B690023FB602B4B1B6B2A4A43F00403CF
:102540001363284B1B6B03F00403FB60FB680F2332
:10255000FB6103233B6200237B6207F11C031946E6
:10256000214803F08DFD244B244A1A60224B4FF082
:1025700000725A60204B00229A601F4B0022DA60E2
:102580001D4B4FF480621A611B4B4FF480525A610D
:10259000194B4FF480429A61174B4FF48072DA6105
:1025A000154B00221A62144B00225A62124803F0A3
:1025B0004DFF0346002B01D0FFF7AAFC7B680E4AB3
:1025C0009A630D4A7B68936300220021122004F075
:1025D00034FC122004F04DFC00BF3037BD4680BDF6
:1025E00000200140003802400008024088A400207A
:1025F0001064024000210140E8A400204064024031
:1026000080B584B000AF78601D4B1E4A0021786809
:1026100004F000FF0346FB60FB68002B11D01A4B4F
:102620000022DA7000224FF48041184803F0DCFEEB
:10263000FB68DAB2164B1A720F2200210120FEF756
:1026400063FC114BDB78012B08D00F4B0122DA70B1
:1026500001224FF480410D4803F0C6FE084B0D499E
:10266000D3E90023C1E90023064B1B681A46012168
:102670000320FEF749FC00BF1037BD4680BD00BFF8
:10268000C8A20020ACA200204C1200200010024082
:102690003C1200204412002090B583B000AF786057
:1026A0000D4B0022DA7000224FF480410B4803F0FA
:1026B0009BFE0B4C786805F028FA034623600E2237
:1026C00000210120FEF720FC786805F02AFA00BFFF
:1026D0000C37BD4690BD00BF4C12002000100240D8
:1026E0004412002080B582B000AF78600D4B00220C
:1026F000DA7000224FF480410B4803F075FE7868D1
:1027000005F0DBF903461A46084B1A601022002137
:102710000120FEF7F9FB786805F003FA00BF0837DF
:10272000BD4680BD4C120020001002404412002023
:1027300080B58CB000AF0023BB610023FB61012397
:102740003B6200237B600023FB600023BB6000230F
:102750003B6100237B6101237B623B1D19462948B5
:1027600004F034FD0346FB62FB6A002B01D0012319
:1027700043E0244804F00AFE0346FB62FB6A002B98
:1027800001D0022339E002211E4804F055FF034620
:10279000FB62FB6A002B01D003232EE004211948C1
:1027A00004F04AFF0346FB62FB6A002B01D00423BE
:1027B00023E00821134804F03FFF0346FB62FB6A55
:1027C000002B01D0052318E04FF480610D4804F080
:1027D00033FF0346FB62FB6A002B01D006230CE0AB
:1027E0004FF40041074804F027FF0346FB62FB6AF1
:1027F000002B01D0072300E0002318463037BD46E8
:1028000080BD00BF48A5002080B500AF174B184A17
:102810001A60164B0C225A60144B00229A60134B1C
:102820000022DA60114B4FF420221A610F4B4FF453
:1028300080125A610D4B00221A760C4B00225A76F8
:102840000A4B01229A76094B0022DA76074B0022C6
:102850001A77064B00225A77044804F0BBFB034664
:10286000002B01D0FFF754FB00BF80BD48A500201E
:102870000064004080B58AB000AF786007F11403AF
:1028800000221A605A609A60DA601A617B681B68DD
:10289000294A93424BD100233B61284B1B6C274AAA
:1028A00043F000731364254B1B6C03F000733B6112
:1028B0003B690023FB60214B1B6B204A43F008035C
:1028C00013631E4B1B6B03F00803FB60FB680323C1
:1028D0007B610223BB610023FB6103233B6209236D
:1028E0007B6207F114031946154803F0C9FB002267
:1028F0000021132004F0A1FA132004F0BAFA0022F8
:102900000021142004F099FA142004F0B2FA0022F5
:102910000021152004F091FA152004F0AAFA0022F3
:102920000021162004F089FA162004F0A2FA00BF54
:102930002837BD4680BD00BF00640040003802401B
:10294000000C024080B582B000AF00237B60334BA7
:102950001B6B324A43F400131363304B1B6B03F4BD
:1029600000137B607B6800233B602C4B1B6B2B4A66
:1029700043F480031363294B1B6B03F480033B6018
:102980003B68002200210B2004F057FA0B2004F0D2
:1029900070FA002200210C2004F04FFA0C2004F001
:1029A00068FA002200210D2004F047FA0D2004F0FF
:1029B00060FA002200210E2004F03FFA0E2004F0FD
:1029C00058FA002200210F2004F037FA0F2004F0FB
:1029D00050FA00220021382004F02FFA382004F0A9
:1029E00048FA002200213A2004F027FA3A2004F0A5
:1029F00040FA002200213B2004F01FFA3B2004F0A3
:102A000038FA00220021452004F017FA452004F08E
:102A100030FA00BF0837BD4680BD00BF0038024015
:102A200080B582B000AF78607B681B68124A934221
:102A30001ED11248FEF73CFB0346002B0CD0104B76
:102A40001B6823F001030E4A13600D4B1B6823F033
:102A500002030B4A13600BE010220A490748FEF7F5
:102A6000E3FB1023074A0021074805F0BFFA00BF27
:102A700000BF0837BD4680BD005400409C62002066
:102A80009462002018A6002070A5002080B582B0B6
:102A900000AF78607B681B68074A934208D1074BF8
:102AA0001B6843F00403054A1360012000F00CFA90
:102AB00000BF0837BD4680BD00540040986200202A
:102AC00080B483B000AF786000BF0C37BD465DF8BE
:102AD000047B704780B483B000AF7860044B012260
:102AE0001A6000BF0C37BD465DF8047B704700BF1D
:102AF00020A3002080B584B002AF4FF480422B4960
:102B00002B48FEF701FB4FF4FA7004F03FFA04F093
:102B100031FA786009E004F02DFA02467B6803F68A
:102B2000B8339A4201D901233CE04FF48071214827
:102B300003F042FC0346002BEDD064230522002164
:102B40001D4805F065FC03463B603B68002B01D047
:102B5000022327E0642300930523184A0021164826
:102B600005F046F903463B603B68002B0BD003237E
:102B700018E004F0FFF902467B6803F6B8339A4286
:102B800001D904230EE04FF480710A4803F014FCCD
:102B90000346012BEDD00A4B1B6843F00103084AA2
:102BA0001360002318460837BD4680BDAC62002084
:102BB0009C6200200004024070A50020684C0108BF
:102BC0009862002080B582B000AF164B1B6803F0FE
:102BD0000103002B21D0134B1B6803F00203002BD1
:102BE0001BD1102210491148FEF71EFB10230E4A7C
:102BF00000210F4805F0FAF903467B607B68002B43
:102C000006D1084B1B6843F00203064A136004E038
:102C1000102205490548FEF7C8FA00BF0837BD462F
:102C200080BD00BF9462002028A600209C62002086
:102C300070A5002080B586B002AF03460A46FB713E
:102C40001346BB71FB793B73BB797B7307F10C02B5
:102C5000322300930223A621034805F0C9F8034656
:102C600018461037BD4680BDC4A5002080B582B08F
:102C700000AF00237B6001213120FFF7DBFF02461C
:102C80007B6813437B6000212D20FFF7D3FF0246B2
:102C90007B6813437B6008212D20FFF7CBFF0246A2
:102CA0007B6813437B607B6818460837BD4680BD50
:102CB00080B500AF124B134A1A60114B124A5A608A
:102CC0000F4B00229A600E4B0022DA600C4B4FF43F
:102CD00080421A610A4B00225A61094B00229A6114
:102CE000074B0022DA61064B00221A62044804F006
:102CF0003BFF0346002B01D0FFF70AF900BF80BD60
:102D000070A5002000540040801A060080B500AF76
:102D1000124B134A1A60114B124A5A600F4B002291
:102D20009A600E4B0022DA600C4B4FF480421A611D
:102D30000A4B00225A61094B00229A61074B00227C
:102D4000DA61064B00221A62044804F00DFF0346C4
:102D5000002B01D0FFF7DCF800BF80BDC4A5002028
:102D6000005C0040801A060080B58CB000AF78602F
:102D700007F11C0300221A605A609A60DA601A6137
:102D80007B681B684A4A934234D10023BB61494B9C
:102D90001B6B484A43F002031363464B1B6B03F063
:102DA0000203BB61BB69C023FB6112233B620023AA
:102DB0007B620323BB620423FB6207F11C031946F9
:102DC0003D4803F05DF900237B613A4B1B6C394AA7
:102DD00043F400131364374B1B6C03F400137B6143
:102DE0007B69002200211F2004F027F81F2004F037
:102DF00040F858E07B681B68304A934253D1002367
:102E00003B612C4B1B6B2B4A43F004031363294B90
:102E10001B6B03F004033B613B690023FB60254B04
:102E20001B6B244A43F001031363224B1B6B03F01B
:102E30000103FB60FB684FF40073FB6112233B62EC
:102E400000237B620323BB620423FB6207F11C03A4
:102E500019461B4803F014F94FF48073FB611223E9
:102E60003B6200237B620323BB620423FB6207F106
:102E70001C031946134803F003F90023BB600D4BF4
:102E80001B6C0C4A43F4000313640A4B1B6C03F4E1
:102E90000003BB60BB6800220021482003F0CDFF87
:102EA000482003F0E6FF00BF3037BD4680BD00BFBD
:102EB000005400400038024000040240005C004022
:102EC000000802400000024080B58CB000AF78607E
:102ED000534BFB620023BB6267E007F1240303222C
:102EE000F96A18460FF03AFE002387F82630BB6ACD
:102EF000052B54D801A252F823F000BF152F00086B
:102F00002D2F0008452F00085D2F0008732F0008A3
:102F1000892F000807F124030A22002118460FF028
:102F2000B5FC0346DBB287F8233038E007F1240311
:102F30001022002118460FF0A9FC0346DBB287F8E7
:102F400021302CE007F124030A22002118460FF05B
:102F50009DFC0346DBB287F8223020E007F1240312
:102F60000A22002118460FF091FC0346DBB23B73A6
:102F700015E007F124030A22002118460FF086FC11
:102F80000346DBB27B730AE007F124030A22002127
:102F900018460FF07BFC0346DBB2BB7300BFFB6A35
:102FA0000333FB62BB6A0133BB62FB6A1B78002BF5
:102FB00002D0BB6A052B90DD002387F8203007F193
:102FC0000C0300221946174807F04CF907F12003BB
:102FD00000221946134807F03DFA97F82320124BB8
:102FE0001A7297F82120104B5A7297F822200E4B34
:102FF0009A723A7B0C4BDA727A7B0B4B1A73BA7B60
:10300000094B5A737B68DAB2074B9A730C22002182
:103010000320FDF779FF00BF3037BD4680BD00BFFC
:103020005612002038A600203C12002080B588B03F
:1030300000AF786007F10803002219460F4807F037
:10304000ABF907F11C03002219460C4807F086FA79
:10305000BA7A7B685A717A7A7B681A713A7A7B6895
:10306000DA70BA7F7B689A707A7F7B685A70FA7FD1
:103070007B681A7000BF2037BD4680BD38A600208F
:1030800080B586B000AF3B1D00221A605A609A607E
:10309000DA601A6100233B602C4B2D4A1A602B4BDF
:1030A00000225A60294B7F229A60284BFF22DA6067
:1030B000264B00221A61254B00225A61234B002225
:1030C0009A61224807F058F80346002B01D0FEF71A
:1030D0001FFF00211D4807F067FB03464CF6FE2248
:1030E00093422ED04CF6FE220021184807F042FBF6
:1030F00000233B7100237B710023BB7100233B61E4
:1031000000237B613B1D01221946104807F0AAF8F5
:103110000346002B01D0FEF7FBFE05233B70052381
:103120007B701223BB702323FB703B4601221946A0
:10313000064807F08FF90346002B03D0FEF7E8FEA0
:1031400000E000BF1837BD4680BD00BF38A6002094
:103150000028004080B586B000AF786007F1080312
:1031600000221A605A609A60DA607B681B680C4A19
:10317000934211D10223BB604FF480737B6107F14E
:103180000803184602F09AFE0346002B01D0FEF712
:10319000BFFE044B01221A6000BF1837BD4680BD38
:1031A000002800403C0E4742B0B5ADF5825D86B0C8
:1031B00004AF07F1480343F8440C4FF480524949E7
:1031C0004948FDF7A1FF00200BF0C4FD07F12803DB
:1031D0001C3B0022454918460DF03CFF034607F50D
:1031E000825202F10402136007F5825303F10403D3
:1031F0001B68002B13D03E4B00225A7000224FF464
:1032000000513C4803F0F0F80D2200210120FDF7A9
:103210007BFE07F5825303F104031B685CE007F1B2
:10322000480353F8443C1B781C4607F1480353F805
:10323000443C5B781D4607F1480353F8443C9B78B7
:103240001A4607F1480353F8443CDB78194607F166
:10325000480353F8443C1B79184607F1480353F8D8
:10326000443C5B7903930290019100922B462246E5
:10327000214922480FF0E8FB3222204920480DF076
:103280002FFF034607F5825202F10402136007F58F
:10329000825303F104031B68002B13D0144B00224C
:1032A0005A7000224FF40051124803F09DF80D228D
:1032B00000210120FDF728FE07F5825303F10403E6
:1032C0001B6809E00A4B01225A7001224FF4005199
:1032D000084803F089F80023184607F58257083795
:1032E000BD46B0BD8012002070120020704C010855
:1032F0004C12002000100240744C010858A6002017
:103300000C02002080B582B000AF1E4B5B78002B12
:1033100002D14FF0FF3330E01B48FDF7C9FE0346F2
:10332000002B02D04FF0FF3327E000237B600CE03E
:10333000102216491448FDF777FF154B1022134948
:1033400014480EF095F803467B600F48FDF7B0FE79
:103350000346002BECD07B68002B0DD0094B0022DC
:103360005A7000224FF400510B4803F03DF80D2233
:1033700000210120FDF7C8FD7B6818460837BD46CF
:1033800080BD00BF4C1200207012002080A60020DB
:10339000D4A700200C0200200010024080B582B0AB
:1033A00000AF114B5B78002B02D14FF0FF3316E0DA
:1033B0000E480EF0F1F903467B607B68002B0DD0C0
:1033C000094B00225A7000224FF40051084803F0C4
:1033D0000BF80D2200210120FDF796FD7B681846B1
:1033E0000837BD4680BD00BF4C1200200C020020F3
:1033F0000010024080B400AF0D4B0E4A1A600C4B17
:1034000000225A600A4B00229A60094B0022DA60BF
:10341000074B00221A61064B4FF480425A61044B5D
:103420000C229A6100BFBD465DF8047B704700BF67
:1034300090A60020002C014080B58AB000AF7860D3
:1034400007F1140300221A605A609A60DA601A6168
:103450007B681B68704A934240F0DA8000233B612E
:103460006E4B5B6C6D4A43F4006353646B4B5B6C57
:1034700003F400633B613B690023FB60674B1B6BFC
:10348000664A43F004031363644B1B6B03F00403AD
:10349000FB60FB680023BB60604B1B6B5F4A43F023
:1034A000080313635D4B1B6B03F00803BB60BB6831
:1034B0004FF480737B610223BB610123FB61032313
:1034C0003B620C237B6207F114031946544802F057
:1034D000D7FD4FF480537B610223BB610023FB6166
:1034E00003233B620C237B6207F1140319464C480B
:1034F00002F0C6FD04237B610223BB610123FB6153
:1035000003233B620C237B6207F1140319464548F1
:1035100002F0B6FD444B454A1A60434B4FF000623F
:103520005A60414B00229A603F4B0022DA603E4BCA
:103530004FF480621A613C4B4FF480525A613A4B0F
:103540004FF480429A61384B2022DA61364B0022D8
:103550001A62354B04225A62334B03229A62324B71
:103560004FF40002DA62304B4FF400121A632E4817
:1035700002F06CFF0346002B01D0FEF7C9FC7B680C
:10358000294A1A64284A7B689363294B294A1A609E
:10359000274B4FF000625A60254B40229A60244B23
:1035A0000022DA60224B4FF480621A61204B4FF404
:1035B00080525A611E4B4FF480429A611C4B20226C
:1035C000DA611B4B00221A62194B04225A62184B13
:1035D00003229A62164B4FF40002DA62144B4FF446
:1035E00000121A63124802F031FF0346002B01D08B
:1035F000FEF78EFC7B680E4ADA630D4A7B689363A4
:1036000000220021312003F018FC312003F031FCAE
:1036100000BF2837BD4680BD002C01400038024065
:1036200000080240000C024014A70020A0640240E1
:1036300074A700205864024080B483B000AF786063
:103640007B681B68104A934217D1104B1B680133EB
:103650000E4A13600E4B1B6843F001030C4A1360C3
:103660000A4B1B680A2B08D1084B00221A60084B32
:103670001B6843F00203064A136000BF0C37BD46C7
:103680005DF8047B704700BF00000140E8A90020FE
:103690005012002080B584B000AF78607B681B6852
:1036A000DB6AFB607B681B68634A934240F0BE8024
:1036B000624B1B6803F48073002B00F0B9807B68B9
:1036C0001B7F013B072B00F2A38001A252F823F0DD
:1036D000F136000839370008113800088137000832
:1036E000113800081138000811380008C9370008DF
:1036F000524B1B6803F01003002B0CD14F4B1B687F
:1037000043F010034D4A136001234D4A00214D48F8
:1037100008F0DEFF7DE0F968002000F0DBF8474BA1
:103720001B6823F01003454A1360444B1B6843F0A9
:103730000103424A13606CE0404B1B6803F0200316
:10374000002B0CD13D4B1B6843F020033B4A136018
:1037500001233D4A00213B4808F0BAFF59E0F968CF
:10376000012000F0B7F8354B1B6823F02003334AE3
:103770001360324B1B6843F00203304A136048E089
:103780002E4B1B6803F04003002B0CD12B4B1B6806
:1037900043F04003294A136001232C4A00212948A1
:1037A00008F096FF35E0F968022000F093F8234B0B
:1037B0001B6823F04003214A1360204B1B6843F031
:1037C00004031E4A136024E01C4B1B6803F08003B3
:1037D000002B0CD1194B1B6843F08003174A136070
:1037E00001231B4A0021174808F072FF11E0F96815
:1037F000032000F06FF8114B1B6823F080030F4A81
:1038000013600E4B1B6843F008030C4A136000E082
:1038100000BF0A4B1B6840F20F12934209D1074BBD
:103820001B6843F40073054A136002E000BF00E028
:1038300000BF1037BD4680BD000C0040ECA2002048
:1038400010A3002020A8002014A3002018A300200B
:103850001CA3002080B400AF00231846BD465DF8CD
:10386000047B704780B500AF144B1B6803F4807372
:10387000002B1FD10123124A0021124808F028FF13
:103880000123114A04210F4808F022FF01230F4AA7
:1038900008210C4808F01CFF01230D4A0C2109489F
:1038A00008F016FF054B1B6843F48073034A13604E
:1038B000002301E04FF0FF33184680BDECA200204A
:1038C00000A3002020A8002004A3002008A30020BB
:1038D0000CA3002080B483B000AF78603960094A3F
:1038E0007B6852F8232008497B6851F82330D21AAC
:1038F00006497B6841F8232000BF0C37BD465DF8C0
:10390000047B704710A3002000A30020F0A2002039
:1039100080B586B000AF07F1080300221A605A6034
:103920009A60DA603B4600221A605A601F4B204AB8
:103930001A601E4B40F247325A601C4B00229A60BC
:103940001A4B44F61F62DA60184B00221A61174BBB
:1039500000225A61154B00229A61144808F09EFD1E
:103960000346002B01D0FEF7D3FA4FF48053BB601F
:1039700007F1080319460D4809F0F8F90346002B32
:1039800001D0FEF7C5FA00233B6000237B603B4675
:103990001946064809F04EFE0346002B01D0FEF7FB
:1039A000B7FA00BF1837BD4680BD00BFD8A70020BA
:1039B0000000014080B58AB000AF07F11803002273
:1039C0001A605A609A60DA6007F1100300221A60E8
:1039D0005A603B4600221A605A609A60DA603B4B9C
:1039E0003B4A1A60394B53225A60384B00229A6086
:1039F000364B384ADA60354B00221A61334B0022CD
:103A00009A61324808F04AFD0346002B01D0FEF7C8
:103A10007FFA4FF48053BB6107F1180319462B4816
:103A200009F0A4F90346002B01D0FEF771FA2748EC
:103A300008F0F4FD0346002B01D0FEF769FA0023DD
:103A40003B6100237B6107F1100319461F4809F011
:103A5000F1FD0346002B01D0FEF75AFA00233B602C
:103A600001237B600023BB600023FB603B460022F8
:103A70001946164809F0DEF80346002B01D0FEF780
:103A800047FA3B4604221946104809F0D3F803468A
:103A9000002B01D0FEF73CFA3B46082219460B48A2
:103AA00009F0C8F80346002B01D0FEF731FA3B4677
:103AB0000C221946054809F0BDF80346002B01D039
:103AC000FEF726FA00BF2837BD4680BD20A800209B
:103AD000000C00403F420F0080B58AB000AF786014
:103AE00007F1140300221A605A609A60DA601A61C2
:103AF0007B681B68914A934216D100233B61904B2F
:103B00005B6C8F4A43F0010353648D4B5B6C03F095
:103B100001033B613B6900220021192003F08DF96C
:103B2000192003F0A6F905E17B681B68854A9342DA
:103B300040F000810023FB60814B1B6C804A43F006
:103B4000080313647E4B1B6C03F00803FB60FB68E7
:103B50000023BB607A4B1B6B794A43F0010313636C
:103B6000774B1B6B03F00103BB60BB680F237B61CA
:103B70000223BB610023FB6100233B6202237B62C3
:103B800007F114031946704802F07AFA6F4B704A35
:103B90001A606E4B4FF040625A606C4B00229A6084
:103BA0006A4B0022DA60694B4FF480621A61674BFE
:103BB0004FF480525A61654B4FF480429A61634BD7
:103BC0000022DA61614B00221A62604B00225A62C5
:103BD0005E4802F03BFC0346002B01D0FEF798F94B
:103BE0007B685A4A5A62594A7B689363594B5A4ACE
:103BF0001A60584B4FF040625A60564B00229A6050
:103C0000544B0022DA60534B4FF480621A61514BDF
:103C10004FF480525A614F4B4FF480429A614D4BA2
:103C20000022DA614B4B00221A624A4B00225A6290
:103C3000484802F00BFC0346002B01D0FEF768F960
:103C40007B68444A9A62434A7B689363434B444A85
:103C50001A60424B4FF040625A60404B00229A601B
:103C60003E4B0022DA603D4B4FF480621A613B4BC1
:103C70004FF480525A61394B4FF480429A61374B6E
:103C80000022DA61354B00221A62344B00225A625C
:103C9000324802F0DBFB0346002B01D0FEF738F977
:103CA0007B682E4ADA622D4A7B6893637B682B4AD5
:103CB0001A622A4A7B6893632A4B2B4A1A60294B63
:103CC0004FF040625A60274B00229A60254B002239
:103CD000DA60244B4FF480621A61224B4FF4805219
:103CE0005A61204B4FF480429A611E4B0022DA61E8
:103CF0001C4B00221A621B4B00225A62194802F028
:103D0000A5FB0346002B01D0FEF702F97B68154A9C
:103D10001A63144A7B6893637B68124A9A63114A58
:103D20007B68936300220021322003F086F8322062
:103D300003F09FF800BF2837BD4680BD000001405A
:103D400000380240000C00400000024068A800203B
:103D500040600240C8A800207060024028A90020EE
:103D60001060024088A900205860024080B584B0ED
:103D700000AF78607B681B68174A934228D1002304
:103D8000FB600023BB600AE0144ABB6813441B7845
:103D90001A46FB681344FB60BB680133BB60BB6819
:103DA000122BF1DDFB68DBB2FB600C4BDA7CFB68AD
:103DB000DBB29A420CD1032209490A4809F0A9FD55
:103DC0000020FFF781F814220449064809F0E6FDB7
:103DD00000BF1037BD4680BD0010014054120020C6
:103DE000984C0108ECA9002080B582B000AF786043
:103DF0007B681B68124A93421ED11248FDF758F99E
:103E00000346002B0CD0104B1B6823F001030E4A15
:103E100013600D4B1B6823F002030B4A13600BE089
:103E20000A4B102219460748FDF7FEF912220849ED
:103E3000084809F06EFD00BF00BF0837BD4680BDD1
:103E4000001401408422002080220020060000206F
:103E50000400002074AA002080B500AF4FF4804217
:103E600003490448FDF750F90023184680BD00BF00
:103E7000942200208422002080B500AF0F4B1B68E5
:103E800003F00103002B16D00C4B1B6803F0020358
:103E9000002B10D1094B1B6843F00203074A136043
:103EA000074B102219460748FDF7BEF912220649B2
:103EB000064809F02EFD00BF80BD00BF8022002013
:103EC00006000020842200200400002074AA0020A4
:103ED00080B500AF114B124A1A60104B4FF4E1321B
:103EE0005A600E4B00229A600C4B0022DA600B4B9A
:103EF00000221A61094B0C225A61084B00229A6178
:103F0000064B0022DA61054809F024FC0346002B29
:103F100001D0FDF7FDFF00BF80BD00BFECA9002070
:103F20000010014080B500AF114B124A1A60104BCF
:103F30004FF416525A600E4B00229A600C4B00222E
:103F4000DA600B4B00221A61094B0C225A61084BB4
:103F500000229A61064B0022DA61054809F0FAFB5B
:103F60000346002B01D0FDF7D3FF00BF80BD00BF8B
:103F700030AA00200048004080B500AF114B124A23
:103F80001A60104B4FF4E1325A600E4B00229A60D7
:103F90000C4B0022DA600B4B00221A61094B0C22F9
:103FA0005A61084B00229A61064B0022DA610548EB
:103FB00009F0D0FB0346002B01D0FDF7A9FF00BF9D
:103FC00080BD00BF74AA00200014014080B58EB0EF
:103FD00000AF786007F1240300221A605A609A60EB
:103FE000DA601A617B681B686F4A934235D10023FF
:103FF0003B626E4B5B6C6D4A43F0100353646B4B3A
:104000005B6C03F010033B623B6A0023FB61674B70
:104010001B6B664A43F001031363644B1B6B03F095
:104020000103FB61FB694FF4C0637B620223BB6247
:104030000023FB6203233B6307237B6307F1240315
:1040400019465B4802F01CF800220021252002F0EE
:10405000F4FE252002F00DFFA1E07B681B68554AA5
:10406000934263D10023BB61504B1B6C4F4A43F416
:10407000802313644D4B1B6C03F48023BB61BB692D
:1040800000237B61494B1B6B484A43F004031363D5
:10409000464B1B6B03F004037B617B694FF4406369
:1040A0007B620223BB620023FB6203233B63072383
:1040B0007B6307F1240319463F4801F0E1FF3F4BC2
:1040C0003F4A1A603D4B4FF000625A603B4B002262
:1040D0009A603A4B0022DA60384B4FF480621A61E2
:1040E000364B00225A61354B00229A61334B002235
:1040F000DA61324B00221A62304B00225A622F489A
:1041000002F0A4F90346002B01D0FDF701FF7B6804
:104110002A4A9A63294A7B68936300220021272058
:1041200002F08BFE272002F0A4FE38E07B681B68BB
:10413000244A934233D100233B611C4B5B6C1B4AE6
:1041400043F020035364194B5B6C03F020033B6185
:104150003B690023FB60154B1B6B144A43F00403BF
:104160001363124B1B6B03F00403FB60FB68C0235B
:104170007B620223BB620023FB6203233B630823B1
:104180007B6307F1240319460B4801F079FF0022F5
:104190000021472002F051FE472002F06AFE00BFD6
:1041A0003837BD4680BD00BF0010014000380240D6
:1041B000000002400048004000080240B8AA002069
:1041C000286002400014014080B582B000AF7860E2
:1041D0000B467B807B681B680B4A93420FD10B4BCD
:1041E00001221A6080220A490A4809F007FC0A4B9A
:1041F0001B681A68084B1B6822F008021A6000BF8F
:104200000837BD4680BD00BF004800402CA30020F9
:1042100030A3002030AA0020B8AA0020B0B5A6B074
:1042200000AF584A07F1900392E8030083E80300C7
:1042300007F1900164230822534809F0D8FA32208C
:1042400002F0A4FE514B07F180040FCB84E80F006D
:104250004F4B07F170040FCB84E80F004D4B07F173
:1042600060040FCB84E80F004B4B07F150040FCBD9
:1042700084E80F00494B07F140040FCB84E80F009E
:1042800007F18001642310223F4809F0B0FA322080
:1042900002F07CFE07F17001642310223A4809F015
:1042A000A6FA322002F072FE07F1600164231022A8
:1042B000354809F09CFA322002F068FE07F15001FF
:1042C00064231022304809F092FA322002F05EFE98
:1042D00007F14001642310222B4809F088FA3220AC
:1042E00002F054FE2E4B07F12C041D460FCD0FC4D7
:1042F0002B68238007F12C0164231222224809F045
:1043000076FA322002F042FE264B07F11C040FCB56
:1043100007C4238007F11C0164230E221A4809F008
:1043200066FA322002F032FE1F4B3C461D460FCD8E
:104330000FC495E8070084E80700394664231C226F
:10434000114809F054FA322002F020FE01F072FD0B
:104350000346164A1649A1FB03131B0C93608022E7
:104360001449094809F04AFB134B1B681A68124BA1
:104370001B6822F008021A60002318469837BD46D1
:10438000B0BD00BF9C4C010830AA0020A44C01081D
:10439000B44C0108C44C0108D44C0108E44C010899
:1043A000F44C0108084D0108184D01080048004070
:1043B000C5B3A29130A30020B8AA002080B500AFF9
:1043C00001F060FD00BFFDE780B400AF00BFFDE776
:1043D00080B400AF00BFFDE780B400AF00BFFDE7D1
:1043E00080B400AF00BFFDE780B400AF00BFBD46A2
:1043F0005DF8047B704780B400AF00BFBD465DF838
:10440000047B704780B400AF00BFBD465DF8047BFD
:10441000704780B500AF02F099FD00BF80BD00007D
:1044200080B500AF024802F0A9F900BF80BD00BF0F
:1044300028A9002080B500AF024802F09FF900BF14
:1044400080BD00BFB8AA002080B500AF024802F0CE
:1044500095F900BF80BD00BF68A8002080B500AFFF
:10446000024802F08BF900BF80BD00BF88A9002080
:1044700080B500AF024802F081F900BF80BD00BFE7
:10448000C8A8002080B500AF034800F06EFB0348C9
:1044900000F06BFB00BF80BDF8A3002040A400200B
:1044A00080B500AF024803F0EDF800BF80BD00BF4B
:1044B00048A5002080B500AF024803F0E3F800BF34
:1044C00080BD00BF48A5002080B500AF024803F0C2
:1044D000D9F800BF80BD00BF48A5002080B500AF5F
:1044E000024803F0CFF800BF80BD00BF48A5002000
:1044F00080B500AF4FF4807001F090FF00BF80BD29
:1045000080B500AF024808F08DFA00BF80BD00BF43
:10451000D8A7002080B500AF024804F0A7F800BF7C
:1045200080BD00BF70A5002080B500AF024809F033
:10453000CBFA00BF80BD00BFECA9002080B500AF62
:10454000024809F0C1FA00BF80BD00BF30AA0020B8
:1045500080B500AF024807F0E9F800BF80BD00BF9A
:1045600090A6002080B500AF024808F05BFA00BFBB
:1045700080BD00BF20A8002080B500AF024802F037
:10458000FDF800BF80BD00BF88A4002080B500AF4B
:10459000024802F0F3F800BF80BD00BFE8A400208D
:1045A00080B500AF024802F0E9F800BF80BD00BF4F
:1045B00074A7002080B500AF024802F0DFF800BF0A
:1045C00080BD00BF14A7002080B500AF024809F0ED
:1045D0007BFA00BF80BD00BF74AA002080B500AF89
:1045E000024804F043F800BF80BD00BFC4A500200E
:1045F00080B483B000AF00237B60104B5B6C0F4A2C
:1046000043F4804353640D4B5B6C03F480437B6045
:104610007B6800233B60094B1B6C084A43F08053C6
:104620001364064B1B6C03F080533B603B6800BF78
:104630000C37BD465DF8047B704700BF0038024070
:1046400080B582B000AF0023FB7100F088F803460C
:10465000012B01D0012305E0044806F0EFFD0346DD
:10466000FB71FB7918460837BD4680BD90A6002037
:1046700080B586B000AFF860B9607A600023FB7542
:104680007B68BA68F968064806F088FE0346002B86
:1046900001D00123FB75FB7D18461837BD4680BD50
:1046A00090A6002080B586B000AFF860B9607A604F
:1046B0000023FB757B68BA68F968064806F050FF6E
:1046C0000346002B01D00123FB75FB7D18461837EC
:1046D000BD4680BD90A6002080B500AF054807F01C
:1046E00085FB0346042B14BF01230023DBB21846CD
:1046F00080BD00BF90A6002080B582B000AF78607A
:104700007968034807F046FB00BF0837BD4680BD07
:1047100090A6002080B582B000AF786000F018F855
:1047200000BF0837BD4680BD80B582B000AF78605D
:1047300000F090F900BF0837BD4680BD80B582B05B
:1047400000AF786000F092F900BF0837BD4680BD29
:1047500080B400AF00BFBD465DF8047B704780B5F4
:1047600082B000AF0123FB7100F08CF90346002BEF
:1047700001D10023FB71FB79DBB218460837BD4637
:1047800080BD80B584B000AF786002F0F3FBF860C4
:1047900006E0FFF7A1FF0346002B01D1002309E04B
:1047A00002F0E8FB0246FB68D31A7A689A42F0D816
:1047B0004FF0FF3318461037BD4680BD80B582B03C
:1047C00000AF0346FB710B4B01221A70FFF784FF09
:1047D0000346002B07D1074B1B78DBB223F0010304
:1047E000DAB2044B1A70034B1B78DBB21846083759
:1047F000BD4680BD1600002080B582B000AF0346E4
:10480000FB71FFF71DFF0346002B07D1FB7918460C
:10481000FFF7D4FF03461A46044B1A70034B1B786C
:10482000DBB218460837BD4680BD00BF1600002029
:1048300080B582B000AF0346FB71FB791846FFF7E5
:10484000BDFF034618460837BD4680BD80B586B01B
:1048500000AFB9607A603B600346FB730123FB75D0
:1048600047F23050FFF78DFF0346002B01DAFB7D46
:104870003BE03A687968B868FFF7FAFE0346002B18
:1048800032D11C4B00221A6002F074FB386100BF69
:10489000184B1B68002B08D102F06CFB02463B69E9
:1048A000D31A47F22F529342F2D9124B1B68002BB6
:1048B00002D10123FB7517E00E4B00221A6002F0B3
:1048C00059FB386107E0FFF707FF0346002B02D1D1
:1048D0000023FB7508E002F04DFB02463B69D31A4A
:1048E00047F22F529342EED9FB7D18461837BD464A
:1048F00080BD00BF1CAB002080B586B000AFB960A2
:104900007A603B600346FB730123FB75244B002256
:104910001A6047F23050FFF734FF0346002B01DAEC
:10492000FB7D38E03A687968B868FFF7BBFE03465C
:10493000002B2FD102F01EFB386100BF184B1B6803
:10494000002B08D102F016FB02463B69D31A47F24E
:104950002F529342F2D9124B1B68002B02D1012334
:10496000FB7517E00E4B00221A6002F003FB386162
:1049700007E0FFF7B1FE0346002B02D10023FB75D1
:1049800008E002F0F7FA02463B69D31A47F22F52C9
:104990009342EED9FB7D18461837BD4680BD00BF57
:1049A00018AB002080B58CB000AF03463A60FB71B5
:1049B0000B46BB71012387F82F30254B1B78DBB2E8
:1049C00003F00103002B01D003233CE0BB79032B50
:1049D00034D801A252F823F0E9490008F14900084F
:1049E000094A0008234A0008002387F82F3028E0EE
:1049F00007F10C031846FFF77FFE7A6A3B681A60DE
:104A0000002387F82F301CE007F10C031846FFF74E
:104A100073FEBB6A9AB23B681A80002387F82F3076
:104A20000FE007F10C031846FFF766FEBB6A5A0A4F
:104A30003B681A60002387F82F3002E0042387F8D0
:104A40002F3097F82F3018463037BD4680BD00BF55
:104A50001600002080B400AF034B01221A6000BF93
:104A6000BD465DF8047B704718AB002080B400AFF2
:104A7000034B01221A6000BFBD465DF8047B7047FE
:104A80001CAB002080B582B000AF0123FB714FF456
:104A90008051064801F090FC0346002B01D0002312
:104AA000FB71FB7918460837BD4680BD0004024003
:104AB00080B500AF044905480CF038FF03461A469C
:104AC000034B1A7000BF80BD24AB0020904D01083D
:104AD00020AB002080B400AF00231846BD465DF82F
:104AE000047B704780B584B000AF78600023FB730F
:104AF0007B68002B01D1012333E07B681B6C002B0A
:104B000009D17868FDF790FC7B6800225A647B68C5
:104B1000002283F83C207B681B6C03F01003002B01
:104B200018D17B681B6C23F4885323F0020343F0F5
:104B300002027B681A64786800F078FB7B680022C8
:104B40005A647B681B6C23F0030343F001027B680B
:104B50001A6401E00123FB737B68002283F83C2088
:104B6000FB7B18461037BD4680BD80B586B000AFD0
:104B7000786000237B6100233B617B681B681B68B6
:104B8000FB607B681B685B68BB60FB6803F002032B
:104B90007B61BB6803F020033B617B69002B49D03C
:104BA0003B69002B46D07B681B6C03F01003002B85
:104BB00005D17B681B6C43F400727B681A647B68C8
:104BC0001B689B6803F04053002B2BD17B681B7E36
:104BD000002B27D17B681B68DB6A03F47003002B72
:104BE00006D07B681B689B6803F48063002B19D197
:104BF0007B681B685A687B681B6822F020025A6039
:104C00007B681B6C23F480727B681A647B681B6C66
:104C100003F48053002B05D17B681B6C43F0010229
:104C20007B681A647868FDF7ADFA7B681B686FF0E3
:104C300012021A60FB6803F004037B61BB6803F097
:104C400080033B617B69002B57D03B69002B54D01C
:104C50007B681B6C03F01003002B05D17B681B6C79
:104C600043F400527B681A647B681B689B6803F4FA
:104C70004013002B39D17B681B689B6B03F44013F6
:104C8000002B06D07B681B689B6803F48063002BB5
:104C90002BD17B681B685B6803F48063002B24D1F5
:104CA0007B681B689B6803F04053002B1DD17B6819
:104CB0001B7E002B19D17B681B685A687B681B68B8
:104CC00022F080025A607B681B6C23F480527B6860
:104CD0001A647B681B6C03F48073002B05D17B681E
:104CE0001B6C43F001027B681A64786800F01CFCBE
:104CF0007B681B686FF00C021A60FB6803F001030D
:104D00007B61BB6803F040033B617B69002B17D0DC
:104D10003B69002B14D07B681B681B6803F0010300
:104D2000012B0DD17B681B6C43F480327B681A64C5
:104D3000786800F045F97B681B686FF001021A6023
:104D4000FB6803F020037B61BB6803F080633B6179
:104D50007B69002B15D03B69002B12D07B685B6C04
:104D600043F002027B685A647B681B686FF0200284
:104D70001A60786800F02EF97B681B686FF02002DB
:104D80001A6000BF1837BD4680BD000080B586B0F0
:104D900000AFF860B9607A6000233B61FB6893F86C
:104DA0003C30012B01D10223E9E0FB68012283F8AA
:104DB0003C20FB681B689B6803F00103012B18D0A3
:104DC000FB681B689A68FB681B6842F001029A60E6
:104DD0006D4B1B686D4AA2FB03239A0C13465B00C4
:104DE00013443B6102E03B69013B3B613B69002BA3
:104DF000F9D1FB681B689B6803F48073B3F5807F6F
:104E000007D1FB681B689A68FB681B6822F48072F4
:104E10009A60FB681B689B6803F00103012B40F05C
:104E2000A180FB681B6C23F4E06323F0010343F4CF
:104E30008072FB681A64FB681B685B6803F480631C
:104E4000002B07D0FB681B6C23F4405343F48052C3
:104E5000FB681A64FB681B6C03F48053B3F5805F36
:104E600006D1FB685B6C23F00602FB685A6402E023
:104E7000FB6800225A64FB68002283F83C20444B04
:104E80007B61FB689B6B434ADA63FB689B6B424A1E
:104E90001A64FB689B6B414ADA64FB681B686FF01D
:104EA00022021A60FB681B685A68FB681B6842F0A4
:104EB00080625A60FB681B689A68FB681B6842F452
:104EC00080729A60FB68986BFB681B684C331946CC
:104ED000BA687B6801F068FB7B695B6803F01F03BD
:104EE000002B2AD1FB681B682D4A934215D0FB6822
:104EF0001B682C4A934205D1254B5B6803F01F03C6
:104F0000002B0AD0FB681B68274A934236D1204BFE
:104F10005B6803F01003002B30D1FB681B689B68B3
:104F200003F04053002B29D1FB681B689A68FB688B
:104F30001B6842F080429A6020E0FB681B68184AB8
:104F400093421BD1FB681B689B6803F04053002B06
:104F500014D1FB681B689A68FB681B6842F08042AA
:104F60009A600BE0FB681B6C43F01002FB681A644C
:104F7000FB685B6C43F00102FB685A64002318462F
:104F80001837BD4680BD00BF2000002083DE1B43D4
:104F90000023014025540008DF540008FB5400089A
:104FA00000200140002101400022014080B483B074
:104FB00000AF786000BF0C37BD465DF8047B7047DA
:104FC00080B483B000AF786000BF0C37BD465DF899
:104FD000047B704780B483B000AF786000BF0C37AB
:104FE000BD465DF8047B704780B485B000AF786043
:104FF00039600023BB607B6893F83C30012B01D102
:10500000022305E17B68012283F83C203B681B6892
:10501000092B25D97B681B68D9683B681B689BB244
:105020001A4613465B0013441E3B072202FA03F3A1
:10503000DA437B681B680A40DA607B681B68D968C2
:105040003B689A683B681B689BB2184603465B0046
:1050500003441E3B9A407B681B680A43DA6022E0E7
:105060007B681B6819693B681B689BB21A4613462C
:105070005B001344072202FA03F3DA437B681B68E0
:105080000A401A617B681B6819693B689A683B682B
:105090001B689BB2184603465B0003449A407B683A
:1050A0001B680A431A613B685B68062B24D87B683F
:1050B0001B68596B3B685A6813469B001344053BB9
:1050C0001F2202FA03F3DA437B681B680A405A6323
:1050D0007B681B68596B3B681B689BB218463B6832
:1050E0005A6813469B001344053B00FA03F27B68A1
:1050F0001B680A435A634CE03B685B680C2B24D85E
:105100007B681B68196B3B685A6813469B00134405
:10511000233B1F2202FA03F3DA437B681B680A4031
:105120001A637B681B68196B3B681B689BB2184647
:105130003B685A6813469B001344233B00FA03F272
:105140007B681B680A431A6323E07B681B68D96A83
:105150003B685A6813469B001344413B1F2202FAE6
:1051600003F3DA437B681B680A40DA627B681B68DA
:10517000D96A3B681B689BB218463B685A6813465D
:105180009B001344413B00FA03F27B681B680A430F
:10519000DA62224BFB607B681B68214A934209D18B
:1051A0003B681B68122B05D1FB685B6843F48002E7
:1051B000FB685A607B681B68194A934223D13B689D
:1051C0001B68102B03D03B681B68112B1BD1FB689D
:1051D0005B6843F40002FB685A603B681B68102B55
:1051E00011D1104B1B68104AA2FB03239A0C1346E3
:1051F0009B0013445B00BB6002E0BB68013BBB60EB
:10520000BB68002BF9D17B68002283F83C20002387
:1052100018461437BD465DF8047B704700230140F3
:10522000002001402000002083DE1B4380B485B0B5
:1052300000AF7860794BFB60FB685B6823F4403219
:10524000FB685A60FB685A687B685B681A43FB68B6
:105250005A607B681B685A687B681B6822F48072FE
:105260005A607B681B6859687B681B691A027B68F7
:105270001B680A435A607B681B685A687B681B6816
:1052800022F040725A607B681B6859687B689A6894
:105290007B681B680A435A607B681B689A687B6856
:1052A0001B6822F400629A607B681B6899687B68BF
:1052B000DA687B681B680A439A607B689B6A584A75
:1052C000934222D07B681B689A687B681B6822F037
:1052D00070629A607B681B6899687B689A6A7B68D1
:1052E0001B680A439A607B681B689A687B681B6826
:1052F00022F040529A607B681B6899687B68DA6A82
:105300007B681B680A439A600FE07B681B689A6899
:105310007B681B6822F070629A607B681B689A68E1
:105320007B681B6822F040529A607B681B689A6811
:105330007B681B6822F002029A607B681B68996890
:105340007B681B7E5A007B681B680A439A607B68F7
:1053500093F82030002B1BD07B681B685A687B6851
:105360001B6842F400625A607B681B685A687B685D
:105370001B6822F460425A607B681B6859687B682E
:105380005B6A013B5A037B681B680A435A6007E06B
:105390007B681B685A687B681B6822F400625A604D
:1053A0007B681B68DA6A7B681B6822F47002DA6229
:1053B0007B681B68D96A7B68DB69013B1A057B68DF
:1053C0001B680A43DA627B681B689A687B681B6803
:1053D00022F400729A607B681B6899687B6893F876
:1053E00030305A027B681B680A439A607B681B68EE
:1053F0009A687B681B6822F480629A607B681B68ED
:1054000099687B685B699A027B681B680A439A60AB
:1054100000BF1437BD465DF8047B70470023014090
:105420000100000F80B584B000AF78607B689B6B93
:10543000FB60FB681B6C03F05003002B3CD1FB6846
:105440001B6C43F40072FB681A64FB681B689B6862
:1054500003F04053002B2BD1FB681B7E002B27D180
:10546000FB681B68DB6A03F47003002B06D0FB6843
:105470001B689B6803F48063002B19D1FB681B68D1
:105480005A68FB681B6822F020025A60FB681B6C9C
:1054900023F48072FB681A64FB681B6C03F480536E
:1054A000002B05D1FB681B6C43F00102FB681A64FA
:1054B000F868FCF767FE0EE0FB681B6C03F0100356
:1054C000002B03D0F868FFF785FD04E0FB689B6BB9
:1054D000DB6C7868984700BF1037BD4680BD80B54B
:1054E00084B000AF78607B689B6BFB60F868FFF767
:1054F0005DFD00BF1037BD4680BD80B584B000AFF4
:1055000078607B689B6BFB60FB6840221A64FB68D9
:105510005B6C43F00402FB685A64F868FFF75AFDBD
:1055200000BF1037BD4680BD80B483B000AF786047
:1055300000BF0C37BD465DF8047B704780B586B070
:1055400000AF78607B68002B01D1012367E27B68A4
:105550001B6803F00103002B75D0884B9B6803F098
:105560000C03042B0CD0854B9B6803F00C03082B19
:1055700012D1824B5B6803F48003B3F5800F0BD12B
:105580007E4B1B6803F40033002B5BD07B685B68A9
:10559000002B57D1012342E27B685B68B3F5803F63
:1055A00006D1764B1B68754A43F4803313601DE0C7
:1055B0007B685B68B3F5A02F0CD1704B1B686F4AFA
:1055C00043F4802313606D4B1B686C4A43F48033B3
:1055D00013600BE0694B1B68684A23F48033136047
:1055E000664B1B68654A23F4802313607B685B6805
:1055F000002B13D001F0BEFC386108E001F0BAFCCA
:1056000002463B69D31A642B01D9032307E25B4BA3
:105610001B6803F40033002BF0D014E001F0AAFC67
:10562000386108E001F0A6FC02463B69D31A642BFE
:1056300001D90323F3E1514B1B6803F40033002B22
:10564000F0D100E000BF7B681B6803F00203002B71
:1056500063D04A4B9B6803F00C03002B0BD0474BE5
:105660009B6803F00C03082B1CD1444B5B6803F4CC
:105670008003002B16D1414B1B6803F00203002B63
:1056800005D07B68DB68012B01D00123C7E13B4BD0
:105690001B6823F0F8027B681B69DB003749134362
:1056A0000B603AE07B68DB68002B20D0344B012292
:1056B0001A6001F05FFC386108E001F05BFC024613
:1056C0003B69D31A022B01D90323A8E12B4B1B689A
:1056D00003F00203002BF0D0284B1B6823F0F802E4
:1056E0007B681B69DB00254913430B6015E0244BE5
:1056F00000221A6001F03EFC386108E001F03AFC3B
:1057000002463B69D31A022B01D9032387E11B4BC5
:105710001B6803F00203002BF0D17B681B6803F0C9
:105720000803002B36D07B685B69002B16D0154B25
:1057300001221A6001F01EFC386108E001F01AFC39
:1057400002463B69D31A022B01D9032367E10B4BB5
:105750005B6F03F00203002BF0D01BE0094B00222B
:105760001A6001F007FC38610EE001F003FC02460C
:105770003B69D31A022B07D9032350E100380240BA
:1057800000004742800E4742884B5B6F03F00203E4
:10579000002BEAD17B681B6803F00403002B00F0A8
:1057A00097800023FB75814B1B6C03F08053002B0B
:1057B0000FD10023BB607D4B1B6C7C4A43F08053B0
:1057C00013647A4B1B6C03F08053BB60BB680123EE
:1057D000FB75774B1B6803F48073002B18D1744B57
:1057E0001B68734A43F48073136001F0C3FB386194
:1057F00008E001F0BFFB02463B69D31A022B01D936
:1058000003230CE16A4B1B6803F48073002BF0D078
:105810007B689B68012B06D1644B1B6F634A43F086
:10582000010313671CE07B689B68052B0CD15F4B61
:105830001B6F5E4A43F0040313675C4B1B6F5B4AAC
:1058400043F0010313670BE0584B1B6F574A23F0DB
:1058500001031367554B1B6F544A23F0040313676E
:105860007B689B68002B15D001F084FB38610AE04F
:1058700001F080FB02463B69D31A41F28832934221
:1058800001D90323CBE0494B1B6F03F00203002B2C
:10589000EED014E001F06EFB38610AE001F06AFB23
:1058A00002463B69D31A41F28832934201D903235D
:1058B000B5E03E4B1B6F03F00203002BEED1FB7DE6
:1058C000012B05D1394B1B6C384A23F080531364EC
:1058D0007B689B69002B00F0A180344B9B6803F030
:1058E0000C03082B5CD07B689B69022B41D1314BA8
:1058F00000221A6001F03EFB386108E001F03AFB3B
:1059000002463B69D31A022B01D9032387E0274BB8
:105910001B6803F00073002BF0D17B68DA697B68A9
:105920001B6A1A437B685B6A9B011A437B689B6A0C
:105930005B08013B1B041A437B68DB6A1B061B499F
:1059400013434B601B4B01221A6001F013FB3861BB
:1059500008E001F00FFB02463B69D31A022B01D984
:1059600003235CE0114B1B6803F00073002BF0D0A5
:1059700054E0104B00221A6001F0FCFA386108E094
:1059800001F0F8FA02463B69D31A022B01D903232E
:1059900045E0064B1B6803F00073002BF0D13DE09F
:1059A0007B689B69012B07D1012338E00038024056
:1059B00000700040600047421B4B5B68FB607B68E7
:1059C0009B69012B28D0FB6803F480027B68DB69AC
:1059D0009A4221D1FB6803F03F027B681B6A9A421E
:1059E0001AD1FA6847F6C07313407A68526A920176
:1059F000934211D1FB6803F440327B689B6A5B08D9
:105A0000013B1B049A4207D1FB6803F070627B687C
:105A1000DB6A1B069A4201D0012300E000231846EE
:105A20001837BD4680BD00BF0038024080B584B045
:105A300000AF786039607B68002B01D10123CCE096
:105A4000684B1B6803F007033A689A420CD9654B10
:105A50003A68D2B21A70634B1B6803F007033A68C6
:105A60009A4201D00123B8E07B681B6803F002036F
:105A7000002B20D07B681B6803F00403002B05D0AB
:105A8000594B9B68584A43F4E05393607B681B680A
:105A900003F00803002B05D0534B9B68524A43F494
:105AA00060439360504B9B6823F0F0027B689B68D7
:105AB0004D4913438B607B681B6803F00103002B87
:105AC00044D07B685B68012B07D1474B1B6803F40C
:105AD0000033002B19D101237FE07B685B68022B28
